{
  "_format": "hh-sol-artifact-1",
  "contractName": "MAZI",
  "sourceName": "contracts/Token721.sol",
  "abi": [
    {
      "inputs": [],
      "stateMutability": "nonpayable",
      "type": "constructor"
    },
    {
      "anonymous": false,
      "inputs": [
        {
          "indexed": true,
          "internalType": "address",
          "name": "owner",
          "type": "address"
        },
        {
          "indexed": true,
          "internalType": "address",
          "name": "spender",
          "type": "address"
        },
        {
          "indexed": false,
          "internalType": "uint256",
          "name": "value",
          "type": "uint256"
        }
      ],
      "name": "Approval",
      "type": "event"
    },
    {
      "anonymous": false,
      "inputs": [
        {
          "indexed": true,
          "internalType": "address",
          "name": "previousOwner",
          "type": "address"
        },
        {
          "indexed": true,
          "internalType": "address",
          "name": "newOwner",
          "type": "address"
        }
      ],
      "name": "OwnershipTransferred",
      "type": "event"
    },
    {
      "anonymous": false,
      "inputs": [
        {
          "indexed": false,
          "internalType": "address",
          "name": "account",
          "type": "address"
        }
      ],
      "name": "Paused",
      "type": "event"
    },
    {
      "anonymous": false,
      "inputs": [
        {
          "indexed": true,
          "internalType": "address",
          "name": "from",
          "type": "address"
        },
        {
          "indexed": true,
          "internalType": "address",
          "name": "to",
          "type": "address"
        },
        {
          "indexed": false,
          "internalType": "uint256",
          "name": "value",
          "type": "uint256"
        }
      ],
      "name": "Transfer",
      "type": "event"
    },
    {
      "anonymous": false,
      "inputs": [
        {
          "indexed": false,
          "internalType": "address",
          "name": "account",
          "type": "address"
        }
      ],
      "name": "Unpaused",
      "type": "event"
    },
    {
      "inputs": [
        {
          "internalType": "address",
          "name": "owner",
          "type": "address"
        },
        {
          "internalType": "address",
          "name": "spender",
          "type": "address"
        }
      ],
      "name": "allowance",
      "outputs": [
        {
          "internalType": "uint256",
          "name": "",
          "type": "uint256"
        }
      ],
      "stateMutability": "view",
      "type": "function"
    },
    {
      "inputs": [
        {
          "internalType": "address",
          "name": "spender",
          "type": "address"
        },
        {
          "internalType": "uint256",
          "name": "amount",
          "type": "uint256"
        }
      ],
      "name": "approve",
      "outputs": [
        {
          "internalType": "bool",
          "name": "",
          "type": "bool"
        }
      ],
      "stateMutability": "nonpayable",
      "type": "function"
    },
    {
      "inputs": [
        {
          "internalType": "address",
          "name": "account",
          "type": "address"
        }
      ],
      "name": "balanceOf",
      "outputs": [
        {
          "internalType": "uint256",
          "name": "",
          "type": "uint256"
        }
      ],
      "stateMutability": "view",
      "type": "function"
    },
    {
      "inputs": [],
      "name": "decimals",
      "outputs": [
        {
          "internalType": "uint8",
          "name": "",
          "type": "uint8"
        }
      ],
      "stateMutability": "view",
      "type": "function"
    },
    {
      "inputs": [
        {
          "internalType": "address",
          "name": "spender",
          "type": "address"
        },
        {
          "internalType": "uint256",
          "name": "subtractedValue",
          "type": "uint256"
        }
      ],
      "name": "decreaseAllowance",
      "outputs": [
        {
          "internalType": "bool",
          "name": "",
          "type": "bool"
        }
      ],
      "stateMutability": "nonpayable",
      "type": "function"
    },
    {
      "inputs": [
        {
          "internalType": "address",
          "name": "spender",
          "type": "address"
        },
        {
          "internalType": "uint256",
          "name": "addedValue",
          "type": "uint256"
        }
      ],
      "name": "increaseAllowance",
      "outputs": [
        {
          "internalType": "bool",
          "name": "",
          "type": "bool"
        }
      ],
      "stateMutability": "nonpayable",
      "type": "function"
    },
    {
      "inputs": [],
      "name": "name",
      "outputs": [
        {
          "internalType": "string",
          "name": "",
          "type": "string"
        }
      ],
      "stateMutability": "view",
      "type": "function"
    },
    {
      "inputs": [],
      "name": "owner",
      "outputs": [
        {
          "internalType": "address",
          "name": "",
          "type": "address"
        }
      ],
      "stateMutability": "view",
      "type": "function"
    },
    {
      "inputs": [],
      "name": "pause",
      "outputs": [],
      "stateMutability": "nonpayable",
      "type": "function"
    },
    {
      "inputs": [],
      "name": "paused",
      "outputs": [
        {
          "internalType": "bool",
          "name": "",
          "type": "bool"
        }
      ],
      "stateMutability": "view",
      "type": "function"
    },
    {
      "inputs": [],
      "name": "renounceOwnership",
      "outputs": [],
      "stateMutability": "nonpayable",
      "type": "function"
    },
    {
      "inputs": [],
      "name": "symbol",
      "outputs": [
        {
          "internalType": "string",
          "name": "",
          "type": "string"
        }
      ],
      "stateMutability": "view",
      "type": "function"
    },
    {
      "inputs": [],
      "name": "totalSupply",
      "outputs": [
        {
          "internalType": "uint256",
          "name": "",
          "type": "uint256"
        }
      ],
      "stateMutability": "view",
      "type": "function"
    },
    {
      "inputs": [
        {
          "internalType": "address",
          "name": "to",
          "type": "address"
        },
        {
          "internalType": "uint256",
          "name": "amount",
          "type": "uint256"
        }
      ],
      "name": "transfer",
      "outputs": [
        {
          "internalType": "bool",
          "name": "",
          "type": "bool"
        }
      ],
      "stateMutability": "nonpayable",
      "type": "function"
    },
    {
      "inputs": [
        {
          "internalType": "address",
          "name": "from",
          "type": "address"
        },
        {
          "internalType": "address",
          "name": "to",
          "type": "address"
        },
        {
          "internalType": "uint256",
          "name": "amount",
          "type": "uint256"
        }
      ],
      "name": "transferFrom",
      "outputs": [
        {
          "internalType": "bool",
          "name": "",
          "type": "bool"
        }
      ],
      "stateMutability": "nonpayable",
      "type": "function"
    },
    {
      "inputs": [
        {
          "internalType": "address",
          "name": "newOwner",
          "type": "address"
        }
      ],
      "name": "transferOwnership",
      "outputs": [],
      "stateMutability": "nonpayable",
      "type": "function"
    },
    {
      "inputs": [],
      "name": "unpause",
      "outputs": [],
      "stateMutability": "nonpayable",
      "type": "function"
    }
  ],
  "bytecode": "0x60806040523480156200001157600080fd5b506040518060400160405280600481526020017f4d415a49000000000000000000000000000000000000000000000000000000008152506040518060400160405280600381526020017f4d415a0000000000000000000000000000000000000000000000000000000000815250816003908051906020019062000096929190620001c1565b508060049080519060200190620000af929190620001c1565b5050506000600560006101000a81548160ff021916908315150217905550620000ed620000e1620000f360201b60201c565b620000fb60201b60201c565b620002d6565b600033905090565b6000600560019054906101000a900473ffffffffffffffffffffffffffffffffffffffff16905081600560016101000a81548173ffffffffffffffffffffffffffffffffffffffff021916908373ffffffffffffffffffffffffffffffffffffffff1602179055508173ffffffffffffffffffffffffffffffffffffffff168173ffffffffffffffffffffffffffffffffffffffff167f8be0079c531659141344cd1fd0a4f28419497f9722a3daafe3b4186f6b6457e060405160405180910390a35050565b828054620001cf90620002a0565b90600052602060002090601f016020900481019282620001f357600085556200023f565b82601f106200020e57805160ff19168380011785556200023f565b828001600101855582156200023f579182015b828111156200023e57825182559160200191906001019062000221565b5b5090506200024e919062000252565b5090565b5b808211156200026d57600081600090555060010162000253565b5090565b7f4e487b7100000000000000000000000000000000000000000000000000000000600052602260045260246000fd5b60006002820490506001821680620002b957607f821691505b60208210811415620002d057620002cf62000271565b5b50919050565b6118f280620002e66000396000f3fe608060405234801561001057600080fd5b506004361061010b5760003560e01c806370a08231116100a257806395d89b411161007157806395d89b4114610284578063a457c2d7146102a2578063a9059cbb146102d2578063dd62ed3e14610302578063f2fde38b146103325761010b565b806370a0823114610222578063715018a6146102525780638456cb591461025c5780638da5cb5b146102665761010b565b8063313ce567116100de578063313ce567146101ac57806339509351146101ca5780633f4ba83a146101fa5780635c975abb146102045761010b565b806306fdde0314610110578063095ea7b31461012e57806318160ddd1461015e57806323b872dd1461017c575b600080fd5b61011861034e565b6040516101259190610fac565b60405180910390f35b61014860048036038101906101439190611067565b6103e0565b60405161015591906110c2565b60405180910390f35b610166610403565b60405161017391906110ec565b60405180910390f35b61019660048036038101906101919190611107565b61040d565b6040516101a391906110c2565b60405180910390f35b6101b461043c565b6040516101c19190611176565b60405180910390f35b6101e460048036038101906101df9190611067565b610445565b6040516101f191906110c2565b60405180910390f35b61020261047c565b005b61020c61048e565b60405161021991906110c2565b60405180910390f35b61023c60048036038101906102379190611191565b6104a5565b60405161024991906110ec565b60405180910390f35b61025a6104ed565b005b610264610501565b005b61026e610513565b60405161027b91906111cd565b60405180910390f35b61028c61053d565b6040516102999190610fac565b60405180910390f35b6102bc60048036038101906102b79190611067565b6105cf565b6040516102c991906110c2565b60405180910390f35b6102ec60048036038101906102e79190611067565b610646565b6040516102f991906110c2565b60405180910390f35b61031c600480360381019061031791906111e8565b610669565b60405161032991906110ec565b60405180910390f35b61034c60048036038101906103479190611191565b6106f0565b005b60606003805461035d90611257565b80601f016020809104026020016040519081016040528092919081815260200182805461038990611257565b80156103d65780601f106103ab576101008083540402835291602001916103d6565b820191906000526020600020905b8154815290600101906020018083116103b957829003601f168201915b5050505050905090565b6000806103eb610774565b90506103f881858561077c565b600191505092915050565b6000600254905090565b600080610418610774565b9050610425858285610947565b6104308585856109d3565b60019150509392505050565b60006012905090565b600080610450610774565b90506104718185856104628589610669565b61046c91906112b8565b61077c565b600191505092915050565b610484610c54565b61048c610cd2565b565b6000600560009054906101000a900460ff16905090565b60008060008373ffffffffffffffffffffffffffffffffffffffff1673ffffffffffffffffffffffffffffffffffffffff168152602001908152602001600020549050919050565b6104f5610c54565b6104ff6000610d35565b565b610509610c54565b610511610dfb565b565b6000600560019054906101000a900473ffffffffffffffffffffffffffffffffffffffff16905090565b60606004805461054c90611257565b80601f016020809104026020016040519081016040528092919081815260200182805461057890611257565b80156105c55780601f1061059a576101008083540402835291602001916105c5565b820191906000526020600020905b8154815290600101906020018083116105a857829003601f168201915b5050505050905090565b6000806105da610774565b905060006105e88286610669565b90508381101561062d576040517f08c379a000000000000000000000000000000000000000000000000000000000815260040161062490611380565b60405180910390fd5b61063a828686840361077c565b60019250505092915050565b600080610651610774565b905061065e8185856109d3565b600191505092915050565b6000600160008473ffffffffffffffffffffffffffffffffffffffff1673ffffffffffffffffffffffffffffffffffffffff16815260200190815260200160002060008373ffffffffffffffffffffffffffffffffffffffff1673ffffffffffffffffffffffffffffffffffffffff16815260200190815260200160002054905092915050565b6106f8610c54565b600073ffffffffffffffffffffffffffffffffffffffff168173ffffffffffffffffffffffffffffffffffffffff161415610768576040517f08c379a000000000000000000000000000000000000000000000000000000000815260040161075f90611412565b60405180910390fd5b61077181610d35565b50565b600033905090565b600073ffffffffffffffffffffffffffffffffffffffff168373ffffffffffffffffffffffffffffffffffffffff1614156107ec576040517f08c379a00000000000000000000000000000000000000000000000000000000081526004016107e3906114a4565b60405180910390fd5b600073ffffffffffffffffffffffffffffffffffffffff168273ffffffffffffffffffffffffffffffffffffffff16141561085c576040517f08c379a000000000000000000000000000000000000000000000000000000000815260040161085390611536565b60405180910390fd5b80600160008573ffffffffffffffffffffffffffffffffffffffff1673ffffffffffffffffffffffffffffffffffffffff16815260200190815260200160002060008473ffffffffffffffffffffffffffffffffffffffff1673ffffffffffffffffffffffffffffffffffffffff168152602001908152602001600020819055508173ffffffffffffffffffffffffffffffffffffffff168373ffffffffffffffffffffffffffffffffffffffff167f8c5be1e5ebec7d5bd14f71427d1e84f3dd0314c0f7b2291e5b200ac8c7c3b9258360405161093a91906110ec565b60405180910390a3505050565b60006109538484610669565b90507fffffffffffffffffffffffffffffffffffffffffffffffffffffffffffffffff81146109cd57818110156109bf576040517f08c379a00000000000000000000000000000000000000000000000000000000081526004016109b6906115a2565b60405180910390fd5b6109cc848484840361077c565b5b50505050565b600073ffffffffffffffffffffffffffffffffffffffff168373ffffffffffffffffffffffffffffffffffffffff161415610a43576040517f08c379a0000000000000000000000000000000000000000000000000000000008152600401610a3a90611634565b60405180910390fd5b600073ffffffffffffffffffffffffffffffffffffffff168273ffffffffffffffffffffffffffffffffffffffff161415610ab3576040517f08c379a0000000000000000000000000000000000000000000000000000000008152600401610aaa906116c6565b60405180910390fd5b610abe838383610e5e565b60008060008573ffffffffffffffffffffffffffffffffffffffff1673ffffffffffffffffffffffffffffffffffffffff16815260200190815260200160002054905081811015610b44576040517f08c379a0000000000000000000000000000000000000000000000000000000008152600401610b3b90611758565b60405180910390fd5b8181036000808673ffffffffffffffffffffffffffffffffffffffff1673ffffffffffffffffffffffffffffffffffffffff16815260200190815260200160002081905550816000808573ffffffffffffffffffffffffffffffffffffffff1673ffffffffffffffffffffffffffffffffffffffff1681526020019081526020016000206000828254610bd791906112b8565b925050819055508273ffffffffffffffffffffffffffffffffffffffff168473ffffffffffffffffffffffffffffffffffffffff167fddf252ad1be2c89b69c2b068fc378daa952ba7f163c4a11628f55a4df523b3ef84604051610c3b91906110ec565b60405180910390a3610c4e848484610e76565b50505050565b610c5c610774565b73ffffffffffffffffffffffffffffffffffffffff16610c7a610513565b73ffffffffffffffffffffffffffffffffffffffff1614610cd0576040517f08c379a0000000000000000000000000000000000000000000000000000000008152600401610cc7906117c4565b60405180910390fd5b565b610cda610e7b565b6000600560006101000a81548160ff0219169083151502179055507f5db9ee0a495bf2e6ff9c91a7834c1ba4fdd244a5e8aa4e537bd38aeae4b073aa610d1e610774565b604051610d2b91906111cd565b60405180910390a1565b6000600560019054906101000a900473ffffffffffffffffffffffffffffffffffffffff16905081600560016101000a81548173ffffffffffffffffffffffffffffffffffffffff021916908373ffffffffffffffffffffffffffffffffffffffff1602179055508173ffffffffffffffffffffffffffffffffffffffff168173ffffffffffffffffffffffffffffffffffffffff167f8be0079c531659141344cd1fd0a4f28419497f9722a3daafe3b4186f6b6457e060405160405180910390a35050565b610e03610ec4565b6001600560006101000a81548160ff0219169083151502179055507f62e78cea01bee320cd4e420270b5ea74000d11b0c9f74754ebdbfc544b05a258610e47610774565b604051610e5491906111cd565b60405180910390a1565b610e66610ec4565b610e71838383610f0e565b505050565b505050565b610e8361048e565b610ec2576040517f08c379a0000000000000000000000000000000000000000000000000000000008152600401610eb990611830565b60405180910390fd5b565b610ecc61048e565b15610f0c576040517f08c379a0000000000000000000000000000000000000000000000000000000008152600401610f039061189c565b60405180910390fd5b565b505050565b600081519050919050565b600082825260208201905092915050565b60005b83811015610f4d578082015181840152602081019050610f32565b83811115610f5c576000848401525b50505050565b6000601f19601f8301169050919050565b6000610f7e82610f13565b610f888185610f1e565b9350610f98818560208601610f2f565b610fa181610f62565b840191505092915050565b60006020820190508181036000830152610fc68184610f73565b905092915050565b600080fd5b600073ffffffffffffffffffffffffffffffffffffffff82169050919050565b6000610ffe82610fd3565b9050919050565b61100e81610ff3565b811461101957600080fd5b50565b60008135905061102b81611005565b92915050565b6000819050919050565b61104481611031565b811461104f57600080fd5b50565b6000813590506110618161103b565b92915050565b6000806040838503121561107e5761107d610fce565b5b600061108c8582860161101c565b925050602061109d85828601611052565b9150509250929050565b60008115159050919050565b6110bc816110a7565b82525050565b60006020820190506110d760008301846110b3565b92915050565b6110e681611031565b82525050565b600060208201905061110160008301846110dd565b92915050565b6000806000606084860312156111205761111f610fce565b5b600061112e8682870161101c565b935050602061113f8682870161101c565b925050604061115086828701611052565b9150509250925092565b600060ff82169050919050565b6111708161115a565b82525050565b600060208201905061118b6000830184611167565b92915050565b6000602082840312156111a7576111a6610fce565b5b60006111b58482850161101c565b91505092915050565b6111c781610ff3565b82525050565b60006020820190506111e260008301846111be565b92915050565b600080604083850312156111ff576111fe610fce565b5b600061120d8582860161101c565b925050602061121e8582860161101c565b9150509250929050565b7f4e487b7100000000000000000000000000000000000000000000000000000000600052602260045260246000fd5b6000600282049050600182168061126f57607f821691505b6020821081141561128357611282611228565b5b50919050565b7f4e487b7100000000000000000000000000000000000000000000000000000000600052601160045260246000fd5b60006112c382611031565b91506112ce83611031565b9250827fffffffffffffffffffffffffffffffffffffffffffffffffffffffffffffffff0382111561130357611302611289565b5b828201905092915050565b7f45524332303a2064656372656173656420616c6c6f77616e63652062656c6f7760008201527f207a65726f000000000000000000000000000000000000000000000000000000602082015250565b600061136a602583610f1e565b91506113758261130e565b604082019050919050565b600060208201905081810360008301526113998161135d565b9050919050565b7f4f776e61626c653a206e6577206f776e657220697320746865207a65726f206160008201527f6464726573730000000000000000000000000000000000000000000000000000602082015250565b60006113fc602683610f1e565b9150611407826113a0565b604082019050919050565b6000602082019050818103600083015261142b816113ef565b9050919050565b7f45524332303a20617070726f76652066726f6d20746865207a65726f2061646460008201527f7265737300000000000000000000000000000000000000000000000000000000602082015250565b600061148e602483610f1e565b915061149982611432565b604082019050919050565b600060208201905081810360008301526114bd81611481565b9050919050565b7f45524332303a20617070726f766520746f20746865207a65726f20616464726560008201527f7373000000000000000000000000000000000000000000000000000000000000602082015250565b6000611520602283610f1e565b915061152b826114c4565b604082019050919050565b6000602082019050818103600083015261154f81611513565b9050919050565b7f45524332303a20696e73756666696369656e7420616c6c6f77616e6365000000600082015250565b600061158c601d83610f1e565b915061159782611556565b602082019050919050565b600060208201905081810360008301526115bb8161157f565b9050919050565b7f45524332303a207472616e736665722066726f6d20746865207a65726f20616460008201527f6472657373000000000000000000000000000000000000000000000000000000602082015250565b600061161e602583610f1e565b9150611629826115c2565b604082019050919050565b6000602082019050818103600083015261164d81611611565b9050919050565b7f45524332303a207472616e7366657220746f20746865207a65726f206164647260008201527f6573730000000000000000000000000000000000000000000000000000000000602082015250565b60006116b0602383610f1e565b91506116bb82611654565b604082019050919050565b600060208201905081810360008301526116df816116a3565b9050919050565b7f45524332303a207472616e7366657220616d6f756e742065786365656473206260008201527f616c616e63650000000000000000000000000000000000000000000000000000602082015250565b6000611742602683610f1e565b915061174d826116e6565b604082019050919050565b6000602082019050818103600083015261177181611735565b9050919050565b7f4f776e61626c653a2063616c6c6572206973206e6f7420746865206f776e6572600082015250565b60006117ae602083610f1e565b91506117b982611778565b602082019050919050565b600060208201905081810360008301526117dd816117a1565b9050919050565b7f5061757361626c653a206e6f7420706175736564000000000000000000000000600082015250565b600061181a601483610f1e565b9150611825826117e4565b602082019050919050565b600060208201905081810360008301526118498161180d565b9050919050565b7f5061757361626c653a2070617573656400000000000000000000000000000000600082015250565b6000611886601083610f1e565b915061189182611850565b602082019050919050565b600060208201905081810360008301526118b581611879565b905091905056fea2646970667358221220771d655c85455758e4b83fccdf5fb5fd226014e6cd4a217317ee31db8fdb515a64736f6c634300080a0033",
  "linkReferences": {},
  "deployedLinkReferences": {}
}